:020000040800F2
:10000000700B002089010008C5080008710700086E
:10001000C1080008DD030008D72300080000000025
:1000200000000000000000000000000005120008B1
:10003000E103000800000000330D0008AD150008C2
:10004000A3010008A3010008A3010008A301000800
:10005000A3010008A3010008A3010008A3010008F0
:10006000A3010008A3010008A3010008A3010008E0
:10007000A3010008A3010008A3010008A3010008D0
:10008000A3010008A3010008A3010008A3010008C0
:10009000A3010008A3010008A3010008E50300086C
:1000A000A3010008A3010008A3010008A3010008A0
:1000B000A3010008A3010008A3010008A301000890
:1000C000A3010008A3010008A3010008A301000880
:1000D000A3010008291C0008991D0008751F0008CD
:1000E000A3010008A3010008A301000800F002F822
:1000F00000F03AF80AA090E8000C82448344AAF188
:100100000107DA4501D100F02FF8AFF2090EBAE885
:100110000F0013F0010F18BFFB1A43F0010318473B
:100120001C9F00003C9F0000103A24BF78C878C193
:10013000FAD8520724BF30C830C144BF04680C60ED
:10014000704700000023002400250026103A28BF35
:1001500078C1FBD8520728BF30C148BF0B60704739
:100160001FB51FBD10B510BD00F036F81146FFF7E2
:10017000F7FF02F0FDFB00F054F803B4FFF7F2FFC5
:1001800003BC02F02AF900000948804709480047EB
:10019000FEE7FEE7FEE7FEE7FEE7FEE7FEE7FEE737
:1001A000FEE7FEE704480549054A064B7047000094
:1001B000B1150008ED00000870050020700B00204C
:1001C00070070020700700207047704770470000DC
:1001D000004870470C0500207546FFF7F9FFAE4652
:1001E00005006946534620F00700854618B020B543
:1001F000FFF7D8FFBDE820404FF000064FF00007A2
:100200004FF000084FF0000B21F00701AC46ACE8BE
:10021000C009ACE8C009ACE8C009ACE8C0098D462B
:10022000704710B50446AFF300802046BDE810408B
:10023000FFF7A3BF38B5002500246448402380227F
:1002400000210090084600F0A3FC00F01FFDB9E07B
:100250005F480088401C5E490880012002F080FA57
:100260005B49088800EBD0714910A0EB4101F1B95E
:100270006D1C204604EBD0714910A4EB410129B15B
:1002800005F1640081B2534801F073FC204604EB91
:10029000D0714910A4EB410129B9C5F1C80081B260
:1002A0004C4801F066FC642D01D1641C00254848CF
:1002B000008832280CD14848007848B9012296219C
:1002C000084600F0C7F802229621084600F0C2F85E
:1002D0003F48008832280CD13F48007848B10122BD
:1002E000C321962000F0B6F802226921962000F082
:1002F000B1F837480088C82809D10422962169201E
:1003000000F0A8F803229621C32000F0A3F830489B
:100310000088B0F5AF7F0CD12F48007848B9012292
:100320006921962000F096F80222C321962000F061
:1003300091F827480088B0F5AF7F0CD126480078A7
:1003400048B101226921C32000F084F80222C321B0
:10035000692000F07FF81E48008840F2262188427C
:1003600009D10422C321962000F074F803226921E8
:10037000962000F06FF816480088B0F52F7F09D15D
:1003800001229621692000F065F802229621C320FF
:1003900000F060F80E480088B0F5617F09D10422B2
:1003A0006921C32000F056F80322C321692000F020
:1003B00051F807480088B0F5667F03DB0020044948
:1003C000088000E044E700BF38BD00003B7400082F
:1003D00002000020000400400400002000BFFEE7EF
:1003E0007047000010B5802000F020F801280ED1E1
:1003F0000A2002F0B5F908480068012807D107482B
:10040000006808B9012000E000200449086080204D
:1004100000F006F810BD00001C012142B401224288
:1004200001490860704700001404014001460020A3
:100430000022074B1B6803EA0102054B14331B68BB
:100440000B4013B10AB1012000E00020704700000A
:10045000000401402DE9F04105460E469046B542A4
:1004600000DD0127AE4200DD0027B8F1010F1BD1EE
:10047000012F0CD12C4607E0A1B23B4801F079FBDB
:10048000642002F079F9641EB442F5DA0CE05FB939
:100490002C4607E0A1B2344801F06BFB642002F067
:1004A0006BF9641CB442F5DDB8F1020F1BD1012FCA
:1004B0000CD12C4607E0A1B22B4801F05CFB642074
:1004C00002F05AF9641EB442F5DA0CE05FB92C462A
:1004D00007E0A1B2244801F04EFB642002F04CF981
:1004E000641CB442F5DDB8F1030F1BD1012F0CD110
:1004F0002C4607E0A1B21C4801F03FFB642002F04B
:100500003BF9641EB442F5DA0CE05FB92C4607E013
:10051000A1B2154801F031FB642002F02DF9641CF2
:10052000B442F5DDB8F1040F1BD1012F0CD12C46DC
:1005300007E0A1B20C4801F022FB642002F01CF994
:10054000641EB442F5DA0CE05FB92C4607E0A1B2B4
:10055000054801F014FB642002F00EF9641CB4425B
:10056000F5DDBDE8F0810000000800402DE9F04114
:10057000024600250026002000230024002791F8D1
:1005800003C00CF00F0591F803C00CF0100CBCF187
:10059000000F03D091F802C04CEA050591F800C0A5
:1005A000BCF1000F31D0146800202BE04FF0010C9B
:1005B0000CFA00F3B1F800C00CEA03069E4220D109
:1005C00083004FF00F0C0CFA03F7BC4305FA03FC51
:1005D0004CEA040491F803C0BCF1280F06D14FF097
:1005E000010C0CFA00FCC2F814C00AE091F803C038
:1005F000BCF1480F05D14FF0010C0CFA00FCC2F819
:1006000010C0401C0828D1D31460B1F800C0BCF160
:10061000FF0F34DD546800202EE000F1080C4FF08D
:10062000010808FA0CF3B1F800C00CEA03069E4278
:1006300021D183004FF00F0C0CFA03F7BC4305FAED
:1006400003FC4CEA040491F803C0BCF1280F05D167
:1006500000F1080C08FA0CF8C2F8148091F803C0F5
:10066000BCF1480F07D100F1080C4FF0010808FA5F
:100670000CF8C2F81080401C0828CED35460BDE8A6
:10068000F081016170470AB1016100E0416170478A
:1006900038B50025002432484023802200210090F4
:1006A000084600F075FA00F0F1FADC212D4801F05F
:1006B00062FAA0212B4801F060FA8C21294801F050
:1006C0005EFA4AE0012002F04BF827480088401CFF
:1006D00025490880088800EBD0714910A0EB410142
:1006E000F1B96D1C204604EBD0714910A4EB410117
:1006F00029B105F1640081B21C4801F03AFA2046A4
:1007000004EBD0714910A4EB410129B9C5F1C8002F
:1007100081B2164801F02DFA642D01D1641C002528
:1007200011480088C82804D1012237217320FFF71F
:1007300091FE0D480088B0F5FA7F04D101227321A3
:100740003720FFF787FE0848008840F226218842BC
:1007500003DB00200449088000E0B3E700BF38BD98
:100760003B98000800080040020000200004004000
:1007700000BFFEE708B50121582000F0BFFB4FF491
:100780000050ADF8000010208DF8030003208DF814
:10079000020069460448FFF7E9FE4FF400510248A1
:1007A000FFF76FFF08BD00000010014038B50025BD
:1007B000002440484023802200210090084600F099
:1007C000E7F900F063FA72E03B480088401C3A49C0
:1007D0000880012001F0C4FF3749088800EBD07180
:1007E0004910A0EB4101F1B96D1C204604EBD0711A
:1007F0004910A4EB410129B105F1640081B22F48F1
:1008000001F0B7F9204604EBD0714910A4EB410187
:1008100029B9C5F1C80081B2284801F0AAF9642DB0
:1008200001D1641C002524480088322809D1042203
:10083000C3219620FFF70EFE0322C3219620FFF767
:1008400009FE1D480088C82809D101226921962087
:10085000FFF700FE022269219620FFF7FBFD1648F4
:100860000088B0F5AF7F09D104229621C320FFF79D
:10087000F1FD03229621C320FFF7ECFD0E4800880E
:10088000B0F5FA7F09D1012296216920FFF7E2FD38
:10089000022296216920FFF7DDFD0748008840F21B
:1008A0002621884203DB00200349088000E08BE713
:1008B00000BF38BD3B780008020000200004004063
:1008C00000BFFEE77047000070B5002100230F2233
:1008D000C47804B3154C246804F4E064C4F5E064FF
:1008E000210AC1F10403CA40447804FA03F1847870
:1008F0001440214309010E4C0678A155047804F0F8
:100900001F050124AC4005786D11AD0005F1E0250F
:10091000C5F8004109E0047804F01F050124AC404B
:10092000044D0678761145F8264070BD0CED00E0C8
:1009300000E400E080E100E002490143024A116066
:10094000704700000000FA050CED00E000200CE00C
:10095000002106E00022064B03EBC0135A544A1C48
:10096000D1B28029F6DB421CD0B20828F0DB7047F8
:10097000440000202DE9F04304460D4616461F466C
:10098000284638E0224631E0002A2DDB7F2A2BDC86
:10099000002829DB3F2827DC4FEAE07C00EB5C7C69
:1009A0004FEAEC0CDFF8588008EBCC1C1CF802C0B6
:1009B00003464FEAE07800EB58784FEAE808A0EBEE
:1009C000C8094FF0010808FA09F82CEA080C01469A
:1009D0004FEAE07800EB58784FEAE808DFF820901B
:1009E00009EBC81808F802C0511C0AB2A1199142BB
:1009F000CADC411C08B2E9198142C3DCBDE8F083BE
:100A00004400002038B5002406E0002500E06D1CFD
:100A1000B5F57A7FFBD3641CB4F57A7FF5D3012159
:100A2000102000F06BFA14208DF8030003208DF8DD
:100A300002004FF48040ADF8000069460848FFF717
:100A400095FD4FF40040ADF8000069460448FFF7FB
:100A50008DFD012000F02EF9012000F037F938BD9E
:100A60000010014070B50546002411E080212141AD
:100A7000294009B1012100E00021084600F026F9D3
:100A8000012000F017F9002000F014F9601CC4B236
:100A9000082CEBDB012000F00DF9002000F00AF932
:100AA00070BD10B5012000F011F9012000F002F92D
:100AB000002000F00BF9002000F0FCF810BD10B58C
:100AC000002000F003F9012000F0F4F8012000F00C
:100AD000FDF810BD10B5FFF795FFAE2000F002F94C
:100AE000D52000F0FFF8802000F0FCF8A82000F0EE
:100AF000F9F83F2000F0F6F8D32000F0F3F80020DA
:100B000000F0F0F8402000F0EDF8A12000F0EAF845
:100B1000C82000F0E7F8DA2000F0E4F8122000F036
:100B2000E1F8812000F0DEF8CF2000F0DBF8D920DA
:100B300000F0D8F8F12000F0D5F8DB2000F0D2F872
:100B4000302000F0CFF8A42000F0CCF8A62000F070
:100B5000C9F88D2000F0C6F8142000F0C3F8AF20CB
:100B600000F0C0F8FFF7F2FE00F090F810BD70B58D
:100B700005460C4645F0B00000F0B4F8102141EAFB
:100B8000141000F0AFF804F00F0000F0ABF870BDE7
:100B90002DE9FF4F80460E469146DDF834B0002522
:100BA00000244A4631464046039BFFF7E3FE00BF60
:100BB0005EE0002558E008EB0500002852DB08EB5A
:100BC00005007F284EDC3046F11706EB5171C91045
:100BD0000FB2F11706EB5171C910A6EBC10A002E36
:100BE00005DA781E07B20AF108000FFA80FA381900
:100BF000002817DB3819072814DC3819224901EBC3
:100C0000C01008EB0501405C04FB09511BF8011002
:100C100001FA0AF1084339191B4A02EBC11108EB2A
:100C2000050288543819401C00281BDB3819401C69
:100C3000072817DC3819401C134901EBC01008EBDA
:100C40000501405C04FB09511BF80110CAF10802C0
:100C5000114108433919491C0B4A02EBC11108EB39
:100C600005028854681CC5B24D45A4DB601CC4B2A3
:100C70000399481EC11700EB5171012202EBE101FB
:100C8000A14296DCBDE8FF8F4400002010B500248F
:100C90000BE000212046FFF76AFF054901EBC41075
:100CA000802100F02FF8601CC4B2082CF1DB10BDCD
:100CB0004400002010B5044622464FF4804102480B
:100CC000FFF7E1FC10BD00000010014010B5044624
:100CD00022464FF400410248FFF7D5FC10BD00004A
:100CE0000010014010B50446FFF7DBFE7820FFF747
:100CF000B9FE0020FFF7B6FE2046FFF7B3FEFFF770
:100D0000DEFE10BD70B505460E46FFF7CAFE782020
:100D1000FFF7A8FE4020FFF7A5FE002404E0285DB1
:100D2000FFF7A0FE601CC4B2B442F8DBFFF7C7FEB9
:100D300070BD704738B500250024644840238022E8
:100D4000002100900846FFF723FFFFF79FFFB9E05F
:100D50005F480088401C5E490880012001F000FDCA
:100D60005B49088800EBD0714910A0EB4101F1B953
:100D70006D1C204604EBD0714910A4EB410129B150
:100D800005F1640081B2534800F0F3FE204604EB05
:100D9000D0714910A4EB410129B9C5F1C80081B255
:100DA0004C4800F0E6FE642D01D1641C0025484843
:100DB000008832280CD14848007848B90122962191
:100DC0000846FFF747FB022296210846FFF742FB41
:100DD0003F48008832280CD13F48007848B10122B2
:100DE00073219620FFF736FB0222B9219620FFF7E8
:100DF00031FB37480088C82809D104229621B92040
:100E0000FFF728FB032296217320FFF723FB3048CE
:100E10000088B0F5AF7F0CD12F48007848B9012287
:100E2000B9219620FFF716FB022273219620FFF7C7
:100E300011FB27480088B0F5AF7F0CD12648007819
:100E400048B10122B9217320FFF704FB022273216C
:100E5000B920FFF7FFFA1E48008840F22621884299
:100E600009D1042273219620FFF7F4FA0322B92155
:100E70009620FFF7EFFA16480088B0F52F7F09D1CA
:100E800001229621B920FFF7E5FA0222962173206C
:100E9000FFF7E0FA0E480088B0F5617F09D104221F
:100EA000B9217320FFF7D6FA03227321B920FFF787
:100EB000D1FA07480088B0F5667F03DB00200449BB
:100EC000088000E044E700BF38BD00003B74000824
:100ED00002000020000400400400002029B1064A5E
:100EE000D2690243044BDA6104E0034AD2698243C7
:100EF000014BDA61704700000010024029B1064A38
:100F000092690243044B9A6104E0034A9269824366
:100F1000014B9A61704700000010024030B500217B
:100F20000022002400232D4D6D6805F00C0121B135
:100F3000042905D0082923D105E0294D056022E0C8
:100F4000274D05601FE0254D6D6805F47012234D97
:100F50006D6805F48034022505EB92421CB9214DE1
:100F6000554305600BE01D4D6D6805F400351DB15E
:100F70001C4D5543056002E0194D5543056002E0E4
:100F8000174D056000BF00BF144D6D6805F0F001FE
:100F90000909154D6B5C0568DD4045600F4D6D68B6
:100FA00005F4E061090A104D6B5C4568DD40856021
:100FB0000A4D6D6805F46051C90A0B4D6B5C4568BC
:100FC000DD40C560054D6D6805F44041890B074D56
:100FD0006B5CC568B5FBF3F5056130BD00100240E0
:100FE00000127A0000093D0030000020400000207F
:100FF00038B500250024404840238022002100907D
:101000000846FFF7C5FDFFF741FE72E03B48008848
:10101000401C3A490880012001F0A2FB37490888AA
:1010200000EBD0714910A0EB4101F1B96D1C2046D5
:1010300004EBD0714910A4EB410129B105F1640022
:1010400081B22F4800F095FD204604EBD071491085
:10105000A4EB410129B9C5F1C80081B2284800F0CC
:1010600088FD642D01D1641C0025244800883228A5
:1010700009D1012269219620FFF7ECF902226921AA
:101080009620FFF7E7F91D480088C82809D10422F7
:10109000C3219620FFF7DEF90322C3219620FFF734
:1010A000D9F916480088B0F5AF7F09D10122962101
:1010B0006920FFF7CFF9022296216920FFF7CAF9CC
:1010C0000E480088B0F5FA7F09D104229621C3208A
:1010D000FFF7C0F903229621C320FFF7BBF90748A9
:1010E000008840F22621884203DB00200349088063
:1010F00000E08BE700BF38BD3B7C00080200002009
:101100000004004038B5002500243B4840238022DD
:10111000002100900846FFF73BFDFFF7B7FD68E0B0
:1011200036480088401C35490880012001F018FB32
:101130003249088800EBD0714910A0EB4101F1B9A8
:101140006D1C204604EBD0714910A4EB410129B17C
:1011500005F1640081B22A4800F00BFD204604EB43
:10116000D0714910A4EB410129B9C5F1C80081B281
:10117000234800F0FEFC642D01D1641C00251F48AB
:101180000088962813D101227821B420FFF762F954
:101190000222B4217820FFF75DF90322B4217820E0
:1011A000FFF758F904227821B420FFF753F91348C8
:1011B0000088B0F5AF7F13D10122B4217820FFF76A
:1011C00049F902227821B420FFF744F9032278215B
:1011D000B420FFF73FF90422B4217820FFF73AF951
:1011E00006480088B0F5B97F03DB0020034908807A
:1011F00000E095E700BF38BD3B90000802000020EA
:1012000000040040704710B500F002F810BD000067
:101210000CB50020019000903348006840F4803005
:101220003149086000BF3048006800F40030009089
:101230000198401C0190009818B90198B0F5A06F72
:10124000F1D12948006800F4003010B1012000906D
:1012500001E0002000900098012843D12348006855
:1012600040F01000214908600846006820F00300A3
:1012700008600846006840F0020008601A484068AC
:10128000194948600846406848600846406840F48C
:10129000806048600846406820F47C10486008463A
:1012A000406840F4E81048600846006840F08070EC
:1012B000086000BF0C48006800F000700028F9D0FA
:1012C0000948406820F00300074948600846406824
:1012D00040F00200486000BF0348406800F00C0086
:1012E0000828F9D10CBD0000001002400020024087
:1012F00038B5002500242B4840238022002100908F
:101300000846FFF745FCFFF7C1FC5521264800F0D1
:1013100030FCD721244800F02EFCD721224800F0D1
:101320002CFC5521204800F02AFC37E01F4800889B
:10133000401C1E490880012001F012FA1B49088850
:1013400000EBD0714910A0EB4101F1B96D1C2046B2
:1013500004EBD0714910A4EB410129B105F16400FF
:1013600081B2134800F005FC204604EBD07149100F
:10137000A4EB410129B9C5F1C80081B20C4800F0C5
:10138000F8FB642D01D1641C002508480088B0F5E5
:10139000167F03D100200549088000E0C6E700BFA2
:1013A00038BD00003B940008000800400200002007
:1013B0000004004008B50D48402380220021009021
:1013C0000846FFF7E5FBFFF761FC5521084800F0F0
:1013D000D0FB9621064800F0CEFBD721044800F050
:1013E000CCFB9621024800F0CAFB08BD3B64000814
:1013F0000008004008B50D484023802200210090DD
:101400000846FFF7C5FBFFF741FC4621084800F0FE
:10141000B0FB4621064800F0AEFBE121044800F095
:10142000ACFBE121024800F0AAFB08BD3B840008A8
:101430000008004038B5002500242B4840238022B6
:10144000002100900846FFF7A3FBFFF71FFC962141
:10145000264800F08EFB9621244800F08CFB962154
:10146000224800F08AFB9621204800F088FB37E0F4
:101470001F480088401C1E490880012001F070F9B7
:101480001B49088800EBD0714910A0EB4101F1B96C
:101490006D1C204604EBD0714910A4EB410129B129
:1014A00005F1640081B2134800F063FB204604EBB1
:1014B000D0714910A4EB410129B9C5F1C80081B22E
:1014C0000C4800F056FB642D01D1641C002508482F
:1014D0000088B0F5167F03D100200549088000E0A0
:1014E000C6E700BF38BD00003B70000800080040A0
:1014F000020000200004004008B529484023802253
:10150000002100900846FFF743FBFFF7BFFB962141
:10151000244800F02EFB9621224800F02CFB962157
:10152000204800F02AFB96211E4800F028FB962157
:101530001D4800F01EFBC82001F012F90222C8214C
:101540009620FEF787FF042264219620FEF782FF93
:10155000C82001F005F94621124800F00CFBE121FA
:10156000104800F00CFB46210E4800F002FBE12180
:101570000C4800F002FBC82001F0F2F8962109485F
:1015800000F0F7FA9621074800F0F5FA9621054891
:1015900000F0F3FA9621034800F0F1FA08BD0000CC
:1015A0003B60000800080040000400407047000055
:1015B00010B51348006840F0010011490860084662
:1015C0004068104908400E494860084600680E49C6
:1015D00008400B4908600846006820F48020086035
:1015E0000846406820F4FE0048604FF41F00886001
:1015F000FFF709FE4FF000600449086010BD0000CD
:10160000001002400000FFF8FFFFF6FE08ED00E0CA
:1016100030B589B005460C4601210220FFF75EFC7B
:1016200001210520FFF76AFC4020ADF820001820BA
:101630008DF8230003208DF8220008A91348FEF737
:1016400095FFADF81850ADF814400020ADF81A0021
:10165000ADF8160005A90E4800F094FA6020ADF828
:1016600004000120ADF806000020ADF80C0001A92F
:10167000074800F023F90821054800F06BF9012123
:10168000034800F00FF909B030BD00000008014028
:101690000004004030B589B005460C460121042005
:1016A000FFF71CFC01210920FFF728FC4020ADF8C2
:1016B000200018208DF8230003208DF8220008A9AF
:1016C0001348FEF753FFADF81850ADF81440002052
:1016D000ADF81A00ADF8160005A90E4800F052FA50
:1016E0006020ADF804000120ADF806000020ADF840
:1016F0000C0001A9074800F0E1F80821054800F0B6
:1017000029F90121034800F0CDF809B030BD0000EF
:10171000000C01400008004030B589B005460C4679
:1017200001210420FFF7DAFB01210920FFF7E6FB86
:101730004FF40070ADF8200018208DF8230003202E
:101740008DF8220008A91348FEF710FFADF81850D5
:10175000ADF814400020ADF81A00ADF8160005A948
:101760000D4800F00FFA6020ADF804000120ADF83C
:1017700006000020ADF80C0001A9074800F0F4F8BD
:101780000821054800F042F90121034800F08AF8D9
:1017900009B030BD000C01400008004030B589B0F0
:1017A00005460C4601210420FFF798FB0121092082
:1017B000FFF7A4FB4FF48070ADF8200018208DF8DF
:1017C000230003208DF8220008A91348FEF7CEFE5F
:1017D000ADF81850ADF814400020ADF81A00ADF87F
:1017E000160005A90D4800F0CDF96020ADF8040001
:1017F0000120ADF806000020ADF80C0001A9074853
:1018000000F012F90821054800F05EF901210348B3
:1018100000F048F809B030BD000C0140000800405D
:1018200030B589B005460C4601210420FFF756FB70
:1018300001210920FFF762FB8020ADF8200018206D
:101840008DF8230003208DF8220008A91348FEF725
:101850008DFEADF81850ADF814400020ADF81A0018
:10186000ADF8160005A90E4800F08CF96020ADF81F
:1018700004000120ADF806000020ADF80C0001A91D
:10188000074800F02BF90821054800F065F901210F
:10189000034800F007F809B030BD0000000C01401B
:1018A0000008004021B1028842F00102028004E0F9
:1018B00002884FF6FE731A400280704770B500240C
:1018C00000220023058C4FF6FE7635400584028CFD
:1018D0008388048B4FF68F752C40B51E2C400D88E5
:1018E0002C43751E2A400D892A434D882A43144DE6
:1018F000A8420BD0134DA84208D0134DA84205D0E2
:10190000124DA84202D0124DA84213D14FF6F775DE
:101910002A404D892A434FF6FB752A408D882A4379
:101920004FF6FF652B404FF6FF552B408D892B431B
:10193000CD892B4383800483CD888586028470BD46
:10194000002C0140003401400040014000440140AF
:10195000004801400A460021018B4FF6F7731940F9
:10196000114301837047000070B50024002200235A
:10197000058C4FF6EF7635400584028C8388048B06
:1019800048F6FF752C404FF6FF452C400D884FF66A
:10199000FF7606EA05252C434FF6DF752A400D89B0
:1019A00006EA05152A434D8806EA05152A43154D12
:1019B000A84202D0144DA8421DD14FF67F752A408F
:1019C0004D894FF6FF7606EA05152A434FF6BF7597
:1019D0002A408D8806EA05152A434FF6FF352B402D
:1019E0004FF2FF752B408D8906EA85052B43CD8983
:1019F00006EA85052B4383800483CD88058702840E
:101A000070BD0000002C0140003401400A46002156
:101A1000018B4FF2FF7319404FF6FF7303EA022365
:101A2000194301837047000070B500240022002391
:101A3000058C4FF6FF6635400584028C8388848BC5
:101A40004FF68F752C404FF6FC752C400D882C43BB
:101A50004FF6FF552A400D894FF6FF7606EA052519
:101A60002A434D8806EA05252A43154DA84202D08F
:101A7000144DA8421DD14FF2FF752A404D894FF6F3
:101A8000FF7606EA05252A434FF6FF352A408D8862
:101A900006EA05252A434EF6FF752B404DF6FF75E5
:101AA0002B408D8906EA05152B43CD8906EA0515DD
:101AB0002B4383808483CD888587028470BD00009A
:101AC000002C0140003401400A460021818B4FF672
:101AD000F7731940114381837047000070B50022ED
:101AE00000230024058C4EF6FF7635400584038CD8
:101AF0008488828B48F6FF752A404FF6FF452A40BE
:101B00000D884FF6FF7606EA05252A434DF6FF7548
:101B10002B400D8906EA05352B434D8806EA05352D
:101B20002B430B4DA84202D00A4DA84208D14BF6D8
:101B3000FF752C408D894FF6FF7606EA85152C43FC
:101B400084808283CD88A0F84050038470BD00005B
:101B5000002C0140003401400A460021818B4FF2E5
:101B6000FF7319404FF6FF7303EA02231943818381
:101B70007047818670470187704781877047A0F85A
:101B800040107047002202881D4B98420ED01D4B1A
:101B900098420BD0B0F1804F08D01B4B984205D033
:101BA0001A4B984202D01A4B984204D14FF68F73C9
:101BB0001A404B881A43174B984207D0164B98424D
:101BC00004D04FF6FF431A40CB881A4302808B881B
:101BD00083850B8803850A4B98420BD0094B9842AA
:101BE00008D00E4B984205D00D4B984202D00D4BB9
:101BF000984201D10B7A038601238382704700004B
:101C0000002C014000340140000400400008004066
:101C1000000C004000100040001400400040014053
:101C2000004401400048014010B540F225512B48C6
:101C300000F010FB002850D0284800F0C7FBC4B2C9
:101C4000472C02D10120264908704B2C02D10220DA
:101C500023490870482C02D10320214908704A2CDE
:101C600002D104201E490870492C02D105201C49CC
:101C700008701C48008800F4004070BB19480088B8
:101C800000F4804060B10A2C03D000201549088080
:101C900023E01448008840F40040124908801CE00A
:101CA0000D2C06D10F48008840F480400D49088073
:101CB00013E00C480088C0F30D000B490C54094890
:101CC0000088401C0749088008460088401E098893
:101CD000884202DA00200349088010BD0038014024
:101CE00000000020280000204404002010B586B029
:101CF000044601210420FFF701F901218803FFF7C1
:101D0000FDF818208DF817004FF40070ADF814009E
:101D100003208DF8160005A91D48FEF727FC0420B6
:101D20008DF817000002ADF8140003208DF816009E
:101D300005A91748FEF71AFC01940020ADF8080029
:101D40000C20ADF80E000020ADF80C00ADF80A0034
:101D5000ADF8100001A90F4800F0CCFA25208DF84D
:101D6000000001208DF8030003208DF801008DF89C
:101D700002006846FEF7A8FD012240F22551054801
:101D800000F092FA0121034800F058FA06B010BDA5
:101D9000000801400038014010B540F22551454887
:101DA00000F058FA00287DD0424800F00FFB42496D
:101DB00008800846008841490988884202D00020EE
:101DC0003F4908703C480088312802D105203D4930
:101DD000086039480088322802D10120394908605A
:101DE00035480088332802D102203649086032483D
:101DF0000088342802D10320324908602E48008828
:101E0000352802D104202F4908602B480088362845
:101E100002D107202B49086027480088372802D1C3
:101E200009202849086024480088382802D1082061
:101E30002449086020480088392802D10620214919
:101E400008601D480088612802D10A201D490860E9
:101E500019480088622802D10B201A4908601648E8
:101E60000088632802D10D201649086012480088B6
:101E7000642802D15220134908600F480088652861
:101E800002D10E200F4908600B480088662802D155
:101E90000F200C49086008480088672804D11020EA
:101EA000084900E004E0086003480088034908800E
:101EB00010BD000000440040080000200A0000207F
:101EC000040000201000002010B586B00446012157
:101ED0000420FFF713F801214804FEF7FFFF182044
:101EE0008DF817000420ADF8140003208DF81600BB
:101EF00005A91E48FEF73AFB04208DF817000820BC
:101F0000ADF8140003208DF8160005A91748FEF758
:101F10002DFB01940020ADF808000C20ADF80E0058
:101F20000020ADF80C00ADF80A00ADF8100001A9D2
:101F30000F4800F0DFF926208DF8000001208DF811
:101F4000030000208DF801008DF802006846FEF7BE
:101F5000BBFC012240F22551054800F0A5F9012102
:101F6000034800F06BF906B010BD00000008014006
:101F7000004400400EB5002000900190029040F215
:101F800025517C4800F066F900287DD07A48006829
:101F900008B9012000E0002077490860754800F08A
:101FA00015FAC1B2754802680068401C734B18608E
:101FB0007348815418460068022802D1002019464F
:101FC00008606F4800786C2806D16D4840786C280E
:101FD00002D105206B49086069480078662806D15F
:101FE00067484078662802D1012066490860644845
:101FF0000078612806D162484078612802D1022029
:10200000604908605E4800786C2803D15C484078DD
:10201000732807D05A480078732806D1584840786A
:102020006C2802D10320574908605548007872286F
:1020300003D153484078732807D05148007873285B
:1020400006D14F484078722802D104204D490860DB
:102050004B480078782806D149484078782802D142
:102060000A204849086046480078722806D144484A
:102070004078722802D10620424908604048007822
:102080006C2805D13E4800E072E04078752807D002
:102090003B480078752806D1394840786C2802D131
:1020A00007203849086036480078722803D1344840
:1020B0004078752807D032480078752806D1304816
:1020C0004078722802D109202E4908602C480078F7
:1020D0006C2803D12A484078642807D02848007823
:1020E000642806D1264840786C2802D1082025496A
:1020F00008602348007870280ED121484078702865
:102100000AD10020204908700C201E4908601F4891
:102110000078401C1D49087019480078792806D1BC
:1021200017484078792802D10E20164908601448D3
:102130000078732806D112484078732802D10D2008
:10214000104908600E4800787A2806D10C4840787B
:102150007A2802D10F200B490860094800787B28B3
:1021600006D1074840787B2802D110200549086035
:102170000EBD000000480040B401224224000020AF
:102180001C0000201000002004000020140000208B
:1021900010B586B0044601210820FEF7AFFE0121EC
:1021A0008804FEF79BFE18208DF817004FF480601E
:1021B000ADF8140003208DF8160005A91D48FEF7A0
:1021C000D5F904208DF817004002ADF81400032063
:1021D0008DF8160005A91748FEF7C8F901940020EC
:1021E000ADF808000C20ADF80E000020ADF80C0092
:1021F000ADF80A00ADF8100001A90F4800F07AF818
:1022000027208DF8000001208DF8030003208DF8B1
:1022100001008DF802006846FEF756FB012240F2ED
:102220002551054800F040F80121034800F006F868
:1022300006B010BD000C01400048004021B1828969
:1022400042F40052828104E082894DF6FF731A4005
:102250008281704770B502460024002300250020CB
:1022600040F66A16B14200D100BFC1F3421501F039
:102270001F03012606FA03F3012D02D1968933408C
:1022800006E0022D02D1168A334001E0968A3340DF
:102290000C12012606FA04F41688344013B10CB16E
:1022A000012000E0002070BDF0B5034600240026A8
:1022B0000025002040F66A17B94200D100BF184639
:1022C000C1F3421401F01F06012707FA06F5012C9D
:1022D00001D10C3004E0022C01D1103000E01430A8
:1022E0001AB107682F43076002E00768AF43076031
:1022F000F0BD00002DE9F04786B005460E460024EB
:10230000A24600BFA1460027B08900B100BF2F46FA
:102310002C8A4CF6FF700440F08804432C82AC8970
:102320004EF6F3100440B0883189084371890843A0
:102330000443AC81AC8A4FF6FF400440B0890443AB
:10234000AC8201A8FEF7EAFD1F48874202D1DDF802
:1023500010A001E0DDF80CA0A88900F4004040B115
:102360000AEBCA0000EB0A1031684900B0FBF1F833
:1023700007E00AEBCA0000EB0A1031688900B0FBE5
:10238000F1F86420B8FBF0F004012009642101FB9E
:102390001089A88900F4004040B1322000EBC90048
:1023A000B0FBF1F000F00700044308E0322000EB3E
:1023B00009106421B0FBF1F000F00F0004432C8100
:1023C00006B0BDE8F087000000380140014688886B
:1023D000C0F30800704700BFFEE700BF7047000071
:1023E00038B500250024DB484023802200210090DE
:1023F0000846FEF7CDFBFEF749FCA7E1D64800886A
:10240000401CD5490880012000F0AAF9D24908886B
:1024100000EBD0714910A0EB4101F1B96D1C2046D1
:1024200004EBD0714910A4EB410129B105F164001E
:1024300081B2CA48FFF79DFB204604EBD0714910DA
:10244000A4EB410129B9C5F1C80081B2C348FFF727
:1024500090FB642D01D1641C0025BF480088322800
:1024600013D101225A219620FDF7F4FF02225A21AE
:102470009620FDF7EFFF03225A219620FDF7EAFF91
:1024800004225A219620FDF7E5FFB3480088C828AA
:1024900013D1012296215A20FDF7DCFF022296215A
:1024A0005A20FDF7D7FF032296215A20FDF7D2FFCD
:1024B000042296215A20FDF7CDFFA7480088B0F5E9
:1024C000AF7F13D10122D2219620FDF7C3FF022254
:1024D000D2219620FDF7BEFF0322D2219620FDF7E0
:1024E000B9FF0422D2219620FDF7B4FF9A48008854
:1024F000B0F5FA7F13D101229621D220FDF7AAFF71
:1025000002229621D220FDF7A5FF03229621D22098
:10251000FDF7A0FF04229621D220FDF79BFF8E48F5
:10252000008840F28A21884213D101226921962035
:10253000FDF790FF0222C3219620FDF78BFF0322B7
:10254000C3219620FDF786FF042269219620FDF71E
:1025500081FF81480088B0F5487F13D10122962180
:102560006920FDF777FF02229621C320FDF772FF55
:1025700003229621C320FDF76DFF042296216920D6
:10258000FDF768FF7448008840F2B631884213D1E5
:102590000122C3219620FDF75DFF022269219620CA
:1025A000FDF758FF032269219620FDF753FF04220F
:1025B000C3219620FDF74EFF6748008840F24C414A
:1025C000884213D101229621C320FDF743FF022246
:1025D00096216920FDF73EFF032296216920FDF731
:1025E00039FF04229621C320FDF734FF5A480088A2
:1025F00040F2E241884213D10122C3219620FDF727
:1026000029FF022269219620FDF724FF0322692178
:102610009620FDF71FFF0422C3219620FDF71AFF25
:102620004D480088B0F5AF6F13D101229621C32029
:10263000FDF710FF022296216920FDF70BFF032210
:1026400096216920FDF706FF04229621C320FDF79D
:1026500001FF4148008840F20E61884213D10122F7
:1026600069219620FDF7F6FE0222C3219620FDF790
:10267000F1FE0322C3219620FDF7ECFE042269211E
:102680009620FDF7E7FE3448008840F2A4618842B6
:1026900013D1012296216920FDF7DCFE022296214A
:1026A000C320FDF7D7FE03229621C320FDF7D2FEFB
:1026B000042296216920FDF7CDFE2748008840F2CC
:1026C0003A71884209D101225A219620FDF7C2FEB3
:1026D00002225A219620FDF7BDFE1F480088B0F562
:1026E000FA6F09D1012296215A20FDF7B3FE02228A
:1026F00096215A20FDF7AEFE1748008840F6660185
:10270000884209D10322D2219620FDF7A3FE04229C
:10271000D2219620FDF79EFE0F48008840F6FC016E
:10272000884209D103229621D220FDF793FE04228C
:102730009621D220FDF78EFE0748008840F62E1124
:10274000884203DB00200449088000E056E600BF11
:1027500038BD00003B980008020000200004004043
:1027600000B5034603E04FF47A7000F005F8181E38
:10277000A3F10103F7D100BD00EBC001C9004FF088
:10278000E0225161002191610521116100BF4FF0EC
:10279000E021096901F480310029F8D004214FF0CB
:1027A000E02211617047000008B51D4840238022D7
:1027B000002100900846FEF7EBF9FEF767FA552175
:1027C0001848FFF7D6F9D7211648FFF7D4F9D721D3
:1027D0001448FFF7D2F955211248FFF7D0F9962196
:1027E0001148FFF7C6F94FF49670FFF7B9FF0122C1
:1027F00096215520FDF72EFE02229621D720FDF7C7
:1028000029FE03229621D720FDF724FE04229621DB
:102810005520FDF71FFE4FF49670FFF7A1FF08BD8E
:102820003B680008000800400004004008B5454827
:10283000006808B9012000E00020424908604248D1
:1028400040238022002100900846FEF7A1F9FEF700
:102850001DFA5020FFF784FF3C48402380220021CE
:1028600000900846FEF794F9FEF710FA5020FFF7A3
:1028700077FF374840238022002100900846FEF76A
:1028800087F9FEF703FA5020FFF76AFF314840232B
:102890008022002100900846FEF77AF9FEF7F6F94B
:1028A0005020FFF75DFF2C4840238022002100903C
:1028B0000846FEF76DF9FEF7E9F95020FFF750FFE3
:1028C000264840238022002100900846FEF760F948
:1028D000FEF7DCF95020FFF743FF21484023802218
:1028E000002100900846FEF753F9FEF7CFF950207B
:1028F000FFF736FF1B484023802200210090084646
:10290000FEF746F9FEF7C2F95020FFF729FF1648F7
:1029100040238022002100900846FEF739F9FEF797
:10292000B5F95020FFF71CFF1048402380220021FA
:1029300000900846FEF72CF9FEF7A8F95020FFF7A3
:102940000FFF08BDB40122423B3800083B3C0008A1
:102950003B4000083B4400083B4800083B4C000853
:102960003B5000083B5400083B5800083B5C000803
:1029700008B500244FF4A060FDF7DEFFFDF7FAFE76
:102980004FF4E130FFF7B2F94FF4E130FFF79CFA72
:102990004FF41650FFF7FCFBFEF79CF8FDF7D6FF4F
:1029A00040F2CF2140F2CF70FEF774FE40F2CF210B
:1029B00040F2CF70FEF7B0FE40F2CF2140F2CF7070
:1029C000FEF7ECFE40F2CF2140F2CF70FEF728FF79
:1029D00040F2CF2140F2CF70FEF71AFE96216948EF
:1029E000FFF7C7F896216748FFF7C5F896216548B5
:1029F000FFF7C3F896216348FFF7C1F8FEF746F9E1
:102A0000BFE061480068522809D160484023802215
:102A1000002100900846FEF7BBF8FEF737F95A4848
:102A2000006808B9FFF702FF57480068012811D174
:102A3000FDF78CFFFDF7FEFB55480078401C54491C
:102A4000087054480078002803D0002008705149CD
:102A5000087092E04C480068022811D1FDF776FF1B
:102A6000FEF768F94A480078401C4949087049480F
:102A700000780028EDD000200870464908707CE0FE
:102A800041480068032804D1FDF760FFFDF78EFE82
:102A900073E03D480068042804D1FDF757FFFEF7B6
:102AA000A7FA6AE038480068052804D1FDF74EFF10
:102AB000FEF7C0FC61E034480068062804D1FDF749
:102AC00045FFFEF71FFB58E02F480068072804D198
:102AD000FDF73CFFFDF7DCFD4FE02B4800680828C0
:102AE00004D1FDF733FFFEF785FC46E02648006879
:102AF000092804D1FDF72AFFFEF7FAFB3DE0224842
:102B000000680A2804D1FDF721FFFFF769FC34E0D3
:102B10001D4800680B2804D1FDF718FF00F03CF8B1
:102B20002BE0194800680C2804D1FDF70FFFFEF7D1
:102B300081FC22E0144800680D2804D1FDF706FF4F
:102B4000FEF7DAFC19E0104800680E2804D1FDF702
:102B5000FDFEFEF72FFC10E00B4800680F2804D1A3
:102B6000FDF7F4FEFFF720FE07E007480068102895
:102B700003D1FDF7EBFE00F071F8641C0A20FFF7AB
:102B8000EFFD3EE700080040100000203B70000809
:102B9000040000201400002038B5002500249621F0
:102BA0002A48FEF7E6FF32212848FEF7E4FF82219B
:102BB0002648FEF7E2FFAA212448FEF7E0FF24485A
:102BC00040238022002100900846FDF7E1FFFEF738
:102BD0005DF837E01F480088401C1E49088001202E
:102BE000FFF7BEFD1B49088800EBD0714910A0EB30
:102BF0004101F1B96D1C204604EBD0714910A4EBE2
:102C0000410129B105F1640081B21348FEF7B1FF1B
:102C1000204604EBD0714910A4EB410129B9C5F15C
:102C2000C80081B20C48FEF7A4FF642D01D1641CDA
:102C3000002508480088B0F5167F03D1002005491B
:102C4000088000E0C6E700BF38BD00000008004073
:102C50003B900008020000200004004008B5144822
:102C600040238022002100900846FDF791FFFEF7E7
:102C70000DF855210F48FEF77CFF96210D48FEF711
:102C80007AFFD7210B48FEF778FF96210948FEF717
:102C900076FFC820FFF764FD012296215520FDF73D
:102CA000D9FB03229621D720FDF7D4FB08BD0000F5
:102CB0003B6C00080008004000000000000000001D
:102CC0000000000000000000000000F8000000000C
:102CD000000000333000000000160E00160E000049
:102CE000000000000000000040C07840C0784000B4
:102CF000043F04043F040400007088FC0830000016
:102D0000001820FF211E0000F008F000E01800006D
:102D100000211C031E211E0000F008887000000026
:102D20001E21232419272110000000160E00000088
:102D30000000000000000000000000E01804020095
:102D4000000000071820400000020418E000000006
:102D50000040201807000000404080F08040400004
:102D60000202010F01020200000000F0000000005A
:102D70000101011F0101010000000000000000002E
:102D800000B0700000000000000000000000000023
:102D9000000101010101010100000000000000002C
:102DA00000303000000000000000000080601804C7
:102DB000006018060100000000E010080810E000A4
:102DC000000F102020100F00001010F8000000006D
:102DD0000020203F202000000070080808887000B4
:102DE0000030282422213000003008888848300034
:102DF0000018202020110E000000C02010F8000054
:102E000000070424243F240000F8088888080800EC
:102E10000019212020110E0000E010888818000001
:102E2000000F112020110E0000380808C8380800D3
:102E30000000003F00000000007088080888700053
:102E4000001C222121221C0000E010080810E000D4
:102E50000000312222110F00000000C0C00000005D
:102E60000000003030000000000000C0C000000082
:102E7000000080B0700000000000804020100800BA
:102E80000001020408102000404040404040400043
:102E9000040404040404040000081020408000001E
:102EA0000020100804020100007048080808F00023
:102EB0000000003036010000C030C828E810E000F3
:102EC0000718272423140B000000C038E00000007E
:102ED000203C23020227382008F8888888700000E8
:102EE000203F202020110E00C030080808083800BC
:102EF000071820202010080008F808080810E00033
:102F0000203F202020100F0008F88888E8081000D3
:102F1000203F20202320180008F88888E8081000A7
:102F2000203F200003000000C030080808380000DF
:102F300007182020221E020008F808000008F808E0
:102F4000203F210101213F20000808F80808000067
:102F50000020203F2020000000000808F80808009A
:102F6000C08080807F00000008F888C02818080012
:102F7000203F20012638200008F80800000000004B
:102F8000203F20202020300008F8F800F8F8080042
:102F9000203F003F003F200008F830C00008F8083C
:102FA000203F200007183F00E01008080810E0004C
:102FB0000F10202020100F0008F808080808F00063
:102FC000203F210101010000E01008080810E00086
:102FD0000F18242438504F0008F88888888870001B
:102FE000203F2000030C30200070880808083800BB
:102FF0000038202121221C00180808F808081800B1
:103000000000203F2000000008F808000008F80831
:10301000001F202020201F000878880000C83808E2
:10302000000007380E010000F80800F80008F8005A
:10303000033C0700073C03000818688080681808F4
:1030400020302C03032C30200838C800C838080072
:103050000000203F2000000010080808C8380800C1
:103060002038262120201800000000FE0202020065
:103070000000007F40404000000C30C00000000015
:10308000000000010638C00000020202FE0000003D
:10309000004040407F00000000201008040810207D
:1030A0000000000000000000000000000000000020
:1030B0008080808080808080000204080000000002
:1030C0000000000000000000000080808080000000
:1030D0000019242222223F2008F8008080000000EE
:1030E000003F112020110E000000008080800000B1
:1030F000000E112020201100000000808088F800C0
:10310000000E112020103F200000808080800000F1
:10311000001F222222221300008080F08888881855
:103120000020203F20200000000080808080800060
:10313000006B94949493600008F8008080800000F5
:10314000203F210000203F200080989800000000D0
:103150000020203F20200000000000809898000000
:1031600000C08080807F000008F800008080800020
:10317000203F24022D302000000808F80000000045
:103180000020203F20200000808080808080800000
:10319000203F20003F20003F008080008080000012
:1031A00000203F2100203F20000080808080000020
:1031B000001F202020201F00808000808000000051
:1031C00080FFA12020110E00000000808080800080
:1031D000000E112020A0FF80808080008080800071
:1031E00020203F212000010000008080808080009E
:1031F0000033242424241900008080E08080000013
:103200000000001F2020000080800000008080005F
:10321000001F202020103F208080800000808080C0
:1032200000010E3008060100808000800080808050
:103230000F300C030C300F00008080008080800075
:103240000020312E0E3120008080800000808080A0
:1032500080818E7018060100008080808080800050
:103260000021302C2221300000000000807C02026E
:1032700000000000003F404000000000FF00000090
:1032800000000000FF0000000002027C800000003F
:103290000040403F0000000000804040800000806F
:1032A000000000000001010000000000000000001C
:1032B000002F000000000700070000147F147F1497
:1032C00000242A7F2A12002313086462003649551D
:1032D000225000000007000000001C2241000000F6
:1032E00041221C000014083E08140008083E08088B
:1032F000000000A0600000080808080800006060E6
:103300000000002010080402003E5149453E000024
:10331000427F4000004261514946002141454B3106
:10332000001814127F10002745454539003C4A49D2
:103330004930000171090503003649494936000644
:103340004949291E000036360000000056360000AC
:103350000008142241000014141414140000412227
:103360001408000201510906003E4955592E007CFF
:103370001211127C007F49494936003E41414122E9
:10338000007F4141221C007F49494941007F0909D2
:103390000901003E4149497A007F0808087F000082
:1033A000417F4100002040413F01007F081422413D
:1033B000007F40404040007F020C027F007F0408F5
:1033C000107F003E4141413E007F09090906003E51
:1033D0004151215E007F091929460046494949317A
:1033E0000001017F0101003F4040403F001F20409D
:1033F000201F003F4038403F00631408146300075B
:103400000870080700615149454300007F414100B1
:10341000000204081020000041417F000004020166
:10342000020400404040404000000102040000202F
:1034300054545478007F484444380038444444206D
:1034400000384444487F00385454541800087E091A
:1034500001020018A4A4A47C007F080404780000E2
:10346000447D4000004080847D00007F102844009F
:103470000000417F4000007C04180478007C0804B0
:10348000047800384444443800FC242424180018EC
:10349000242418FC007C08040408004854545420D8
:1034A00000043F444020003C4040207C001C204061
:1034B000201C003C4030403C004428102844001CA4
:1034C000A0A0A07C004464544C440000087F41004C
:1034D0000000007F00000000417F08000008040891
:1034E0001008A3AC00000000000000000000000075
:1034F000000000000000005838000000000000003C
:103500000000000000A1A300000000000000000077
:103510000000000000000000000018242418000033
:103520000000000000000000C4E300008060F80715
:103530004020180F08C80808281800010000FF00E4
:10354000100C0340807F0001061800BAC300101061
:10355000F01F10F000808282E2928A868000402272
:1035600015081661000040807F0000000000CAC0FE
:1035700000202020FE2020FF202020FF20202020CF
:10358000000000007F404047444444474040400022
:1035900000BDE700000000FE929292FE929292FE21
:1035A0000000000008080484621E010001FE0204FD
:1035B00004080800BFAA0080828282FE8282828282
:1035C00082FE8282828000008040300F0000000076
:1035D00000FF0000000000D0C4000000800000E0F8
:1035E00002041800000040800000100C0300003F9F
:1035F00040404040407800010E00D6B50000806099
:10360000F80704E4A4A4BFA4A4E40400000100009B
:10361000FF40407F4A4A4A4A4A7F4040003A000001
:10362000000000000000000000000000000000009A
:10363000000036360000000000000000000000001E
:10364000CCE500008060F807101010D0FFD01010FB
:10365000100000010000FF1008040B08FF080B0415
:10366000081000C1A600001010101010FF1010105C
:103670001010F000000000804020180601002040DB
:1036800080403F000000B5E7000000F88888888887
:10369000FF88888888F800000000001F08080808D4
:1036A0007F888888889F80F000D7D30080828282BC
:1036B000828282E2A2928A868280800000000000DC
:1036C0000040807F0000000000000000B6FE000007
:1036D0000008080808080808080808080000001082
:1036E000101010101010101010101010101000D228
:1036F000BB0080808080808080808080808080800F
:103700008000000000000000000000000000000039
:103710000000B8DF0004040404F49495969494F433
:10372000040404040000FE02027A4A4A4A4A4A7A21
:103730000282FE0000CEC40008080838C808090E3E
:103740000808C838080808008080404020110A0492
:103750000A11204040808000B4CF0002FE9292FE09
:103760000200F8898E888C8BF80000101F0808FF73
:10377000044038003C414660043800000000FF016E
:1037800001013109090909897101010101FFFF8066
:1037900080808080809681808080808080FFFF0193
:1037A000818181FD8991A1C1FD81818101FFFF801E
:1037B0008080809F888482819F80808080FFFFFF3F
:1037C000FFFFFFFFFFFFFFFFFFFFFFFFFFFFFFFF09
:1037D000FFFFFFFFFFFFFFFFFFFFFFFFFFFFFFFFF9
:1037E000FFFFFFFFFFFFFFFFFFFFFFFFFFFFFFFFE9
:1037F000FFFFFFFFFFFFFFFFFFFFFFFFFFFFFFFFD9
:10380000FFFFFFFFFFFFFFFFFF01010101010101BA
:103810000101010101010101010101010101010198
:103820000101FFFFFFFFFFFFFFFFFFFFFFFFFFFFA4
:10383000FFFFFFFFFFFFFFFFFFFFFF000000000093
:103840000000000000000000000000000000000078
:103850000000000000000000000000000000000068
:103860000000000000000000000000000000000058
:103870000000000000000008101C18A8BC94F4F020
:1038800030000103DFDFDF40000000000000000027
:103890000000000000000000000000000000000028
:1038A0000000000000000000000000000000000018
:1038B0000000000000000000000000000000000008
:1038C00000000000000000000000000000000000F8
:1038D00000000000000000000000000000000000E8
:1038E00000000000000000000000000000000000D8
:1038F000000000000000383C1C2E7F3FFF07010045
:103900000000C0FC7FBFFF000000000000000000BE
:1039100000000000000000000000000000000000A7
:103920000000000000000000000000000000000097
:103930000000000000000000000000000000000087
:103940000000000000000000000000000000000077
:103950000000000000000000000000000000000067
:103960000000000000000000000000000000000057
:1039700000000000000000F8FCFEFEEFEFECB86075
:10398000C07CC687132F800000E0F8F8000000001C
:103990000000000000000000000000000000000027
:1039A0000000000000000000000000000000000017
:1039B0000000000000000000000000000000000007
:1039C00000000000000000000000000000000000F7
:1039D00000000000000000000000000000000000E7
:1039E00000000000000000000000000000000000D7
:1039F0000000000000000001FFFFFFFFFFFFDFDC11
:103A0000F5FFFF1BFEEEEFFCFEFFFF0F00000000C6
:103A100000000000000000000000000000000000A6
:103A20000000000000000000000000000000000096
:103A30000000000000000000000000000000000086
:103A40000000000000000000000000000000000076
:103A50000000000000000000000000000000000066
:103A60000000000000000000000000000000000056
:103A70000000000000000000073F0F51FFFF35BFAE
:103A8000AF9EBFBA631B371B0F030000000000008E
:103A90000000000000000000000000000000000026
:103AA0000000000000000000000000000000000016
:103AB0000000000000000000000000000000000006
:103AC00000000000000000000000000000000000F6
:103AD000C0000000400000000000000000000000E6
:103AE00000000000000000000000000000000000D6
:103AF000000000000000000000000000181B1F3F35
:103B00003F1F1F1F0F080000000000000000000002
:103B100000000000000000000000000000000000A5
:103B20000000000000000000008000040008000009
:103B30000000000000000000000000000000000085
:103B40000000000000000000000000000000000075
:103B5000AA200068A0200846080000140000000009
:103B60000000000000000000000000000000000055
:103B70000000000000000000000000000000000045
:103B80000000000000000000000000000000000035
:103B90000000000000000000000000000000000025
:103BA0000000000000000000000000000120008272
:103BB00020A4409040D0A4C0B020600000000000CD
:103BC00000000000000000000000000000000030C5
:103BD000608080809151808A000000900000000089
:103BE00000000000000000000000000000000000D5
:103BF00000000000000000000000000000000000C5
:103C000000000000000000000000000000000000B4
:103C100000000000000000000000000000000000A4
:103C20000000000000000000000000000000000094
:103C300000000004172D7C5DFE65100000000000F0
:103C40000000000000000000000000000000000074
:103C50000000000000000000000000000000000064
:103C60000000000000000000000000000000000054
:103C70000000000000000000081CB8FAF0C4E0607A
:103C8000387CFFFFFFFF3E4C0000000000000000FA
:103C90000000000000000000000000000000000024
:103CA0000000000000000000000000000000000014
:103CB0000000000000000000000000000000000004
:103CC00000000000000000000000000000000000F4
:103CD00000000000000000000000000000000000E4
:103CE00000000000000000000000000000000000D4
:103CF0000000000000000EFEFFFFFF9FA3832100D5
:103D000080F8FFFFF73F0080D0980000000000001F
:103D100000000000000000000000000000000000A3
:103D20000000000000000000000000000000000093
:103D30000000000000000000000000000000000083
:103D40000000000000000000000000000000000073
:103D50000000000000000000000000000000000063
:103D60000000000000000000000000000000000053
:103D7000000000000000000007FFFFFFFFFFFCF84D
:103D8000FF7FD3E7FDB0FEFFFFFF00000000000053
:103D90000000000000000000000000000000000023
:103DA0000000000000000000000000000000000013
:103DB0000000000000000000000000000000000003
:103DC00000000000000000000000000000000000F3
:103DD00000000000000000000000000000000000E3
:103DE00000000000000000000000000000000000D3
:103DF0000000000000000000003CFFFFFF7FFFFF0D
:103E0000FFFFFFFFFB8F7FFFFFFF080000000000A8
:103E100000000000000000000000000000000000A2
:103E20000000000000000000000000000000000092
:103E30000000000000000000000000000000000082
:103E40000000000000000000000000000000000072
:103E50000000000000000000000000000000000062
:103E60000000000000000000000000000000000052
:103E7000000000000000000000000307070C1F1FE7
:103E8000EFEFFBF5F3F7EEE181000000000000002A
:103E90000000000000000000000000000000000022
:103EA0000000000000000000000000000000000012
:103EB0000000000000000000000000000000000002
:103EC00000000000000000000000000000000000F2
:103ED00040000000400040000080000000000000A2
:103EE00000000000000000000000000000000000D2
:103EF00000000000000000000000000000000000C2
:103F0000010303030303030100000000000000009D
:103F100000000000000000000000000000000000A1
:103F20000000000000000000004000000000000051
:103F30000000000000000000000000000000000081
:103F40000000000000000000000000000000000071
:103F5000A0002088860308660800204100000000B9
:103F60000000000000000000000000000000000051
:103F70000000000000000000000000000000000041
:103F80000000000000000000000000000000000031
:103F90000000000000000000000000000000000021
:103FA000000000000000000000000000112122C2FB
:103FB0004040848040C2B460B02060000000000037
:103FC00000000000000000000000000000000038B9
:103FD00064C0C0819351028E0000001600000000F2
:103FE00000000000000000000000000000000000D1
:103FF00000000000000000000000000000000000C1
:1040000000000000000000000000000000000000B0
:1040100000000000000000000000000000000000A0
:104020000000000000000000000000000000000090
:104030000000060C12297A6BFE77300000000000A9
:104040000000000000000000000000000000000070
:104050000000000000000000000000000000000060
:104060000000000000000000000000000000000050
:104070000000000000000008083CF8F8F0C4E00070
:104080000018E1FFFFFF0800000000000000000032
:104090000000000000000000000000000000000020
:1040A0000000000000000000000000000000000010
:1040B0000000000000000000000000000000000000
:1040C00000000000000000000000000000000000F0
:1040D00000000000000000000000000000000000E0
:1040E00000000000000000000000000000000000D0
:1040F000000000000000001E3E7FFFFFC30500001F
:10410000E0FEF7FFB73000001000000000000000E4
:10411000000000000000000000000000000000009F
:10412000000000000000000000000000000000008F
:10413000000000000000000000000000000000007F
:10414000000000000000000000000000000000006F
:10415000000000000000000000000000000000005F
:10416000000000000000000000000000000000004F
:104170000000000000007EFEE6FFFFFFFFFCF0FFF6
:10418000FBEFD7E7E0107004141400000000E0F823
:10419000387C3C383830000000000000000000008F
:1041A000000000000000000000000000000000000F
:1041B00000000000000000000000000000000000FF
:1041C00000000000000000000000000000000000EF
:1041D00000000000000000000000000000000000DF
:1041E00000000000000000000000000000000000CF
:1041F00000000000000000071F7FFFFFFF7FFF7F20
:10420000FFFFFFFDFDF0C020F0F8FC3E1E0E0F0684
:10421000020000000000000000000000000000009C
:10422000000000000000000000000000000000008E
:10423000000000000000000000000000000000007E
:10424000000000000000000000000000000000006E
:10425000000000000000000000000000000000005E
:10426000000000000000000000000000000000004E
:104270000000000000000000000000070F1D1F0FDD
:104280003F3F3BDFFFC7EBE7E1C301000000000059
:10429000000000000000000000000000000000001E
:1042A000000000000000000000000000000000000E
:1042B00000000000000000000000000000000000FE
:1042C00000000000000000000000000000000000EE
:1042D000404040000000400000408080000000009E
:1042E00000000000000000000000000000000000CE
:1042F00000000000000000000000000000000000BE
:104300000000000307070707030301000000000087
:10431000000000000000000000000000000000009D
:104320000000000000000000004018140000000021
:10433000200000000000000000000000000000005D
:10434000000000000000000000000000000000006D
:10435000A900204886020866080000E70000000067
:10436000000000000000000000000000000000004D
:10437000000000000000000000000000000000003D
:10438000000000000000000000000000000000002D
:10439000000000000000000000000000000000001D
:1043A000000000000000000000000008116052D171
:1043B00000C0949240FEBC60B0606000000000004D
:1043C0000000000000000000000000000000006984
:1043D0005D8080818191828E0080006600000000F7
:1043E00000000000000000000000000000000000CD
:1043F00000000000000000000000000000000000BD
:1044000000000000000000000000000000000000AC
:10441000000000000000000000000000000000009C
:10442000000000000000000000000000000000008C
:104430000004040D13297A6BFF77300000000000A0
:10444000000000000000000000000000000000006C
:10445000000000000000000000000000000000005C
:10446000000000000000000000000000000000004C
:1044700000000000000000F8E87C80001000401EF2
:10448000E6FEFCCE6602080000000000000000000E
:10449000000000000000000000000000000000001C
:1044A000000000000000000000000000000000000C
:1044B00000000000000000000000000000000000FC
:1044C00000000000000000000000000000000000EC
:1044D00000000000000000000000000000000000DC
:1044E00000000000000000000000000000000000CC
:1044F00000000000000000020FFFFFFEF8F10000C6
:104500006007DFFFFFFC3800000000000000000033
:10451000000000000000000000000000000000009B
:10452000000000000000000000000000000000008B
:10453000000000000000000000000000000000007B
:10454000000000000000000000000000000000006B
:10455000000000000000000000000000000000005B
:10456000000000000000000000000000000000004B
:104570000000000000001000E0FFFFFFFFFFFEE072
:10458000F8FEDFFFFBB13F001010000000000080CC
:104590000040280020200000000000000000000073
:1045A000000000000000000000000000000000000B
:1045B00000000000000000000000000000000000FB
:1045C00000000000000000000000000000000000EB
:1045D00000000000000000000000000000000000DB
:1045E00000000000000000000000000000000000CB
:1045F00000000000000000046FFFFFFFBFFFFFFF8F
:10460000FFFFFFFF8F87800000C008000600000446
:10461000000000000000808080800000000000009A
:10462000000000000000000000000000000000008A
:10463000000000000000000000000000000000007A
:10464000000000000000000000000000000000006A
:10465000000000000000000000000000000000005A
:10466000000000000000000000000000000000004A
:1046700000000000E0E0E0C080C1DBFFEF3ED1E7DA
:10468000DFFF7BFFFFDCF3CE78D320C040E0F0D02B
:10469000F0F0F0D0FCE4C987870347410600000032
:1046A000000000000000000000000000000000000A
:1046B00000000000000000000000000000000000FA
:1046C00000000000000000000000000000000000EA
:1046D000004040004000400000C08000000000009A
:1046E00000000000000000000000000000000000CA
:1046F0000000000001010302020000000707070F8D
:1047000007001F979F0F8F270583C1C281010100FA
:104710000000000000000000000000000000000099
:104720000000000000000000007000040080800015
:10473000A040800000000000000000000000000019
:104740000000000000000000000000000000001A4F
:10475000A3002108A10408400D0020CD00000000A6
:104760000000000000000000000000000000000049
:104770000000000000000000000000000000000039
:10478000000000020F0F0E060606070700000000DB
:104790000000000000000000000000000000000019
:1047A00000000000000000000010000814405190BC
:1047B0004888D411167E38B8B0E0600000000000D0
:1047C00000000000000000000000000000000020C9
:1047D000AE8080858091D2868000806F00000000CE
:1047E00000000000000000000000000000000000C9
:1047F00000000000000000000000000000000000B9
:1048000000000000000000000000000000000000A8
:104810000000000000000000000000000000000098
:104820000000000000000000000000000000000088
:1048300001050C1C1B2B5EEBBB7F7C000000000005
:104840000000000000000000000000000000000068
:104850000000000000000000000000000000000058
:104860000000000000000000000000000000000048
:1048700000000000000070F8F8F000001000041EB6
:10488000EEFEFCEEC7020000000000000000000089
:104890000000000000000000000000000000000018
:1048A0000000000000000000000000000000000008
:1048B00000000000000000000000000000000000F8
:1048C00000000000000000000000000000000000E8
:1048D00000000000000000000000000000000000D8
:1048E00000000000000000000000000000000000C8
:1048F00000000000000000030F1F3EFEF8F0E0C0C3
:1049000040010FBFFFFCF8F0600000000000000055
:104910000000000000000000000000000000000097
:104920000000000000000000000000000000000087
:104930000000000000000000000000000000000077
:104940000000000000000000000000000000000067
:104950000000000000000000000000000000000057
:104960000000000000000000000000000000000047
:10497000000000000000000000E0FEFFFFFFFFF16C
:10498000F0FCDEFFFFB5FF3F10000000000000005C
:1049900000000800002000000000000000000000EF
:1049A0000000000000000000000000000000000007
:1049B00000000000000000000000000000000000F7
:1049C00000000000000000000000000000000000E7
:1049D00000000000000000000000000000000000D7
:1049E00000000000000000000000000000000000C7
:1049F0000000000000000000EDFFFFFFFFFFFFFFD1
:104A0000FFFFFFFFDF0780000080080002000000BA
:104A100000000000C0E0E0E0E0E0408000000000B6
:104A20000000000000000000000000000000000086
:104A30000000000000000000000000000000000076
:104A40000000000000000000000000000000000066
:104A50000000000000000000000000000000000056
:104A60000000000000000000000000000000000442
:104A70000C1C3C78F0F0E0E0A1E3CFFFEF3EFDE757
:104A80009FFFFFFFFFDFFDF71EDEF0D070E0F07844
:104A9000783838797B3930A0201001000000000000
:104AA0000000000000000000000000000000000006
:104AB00000000000000000000000000000000000F6
:104AC0000000000000000000000000000000008066
:104AD000C040400000004000004000000000000016
:104AE00000000000000000000000000000000000C6
:104AF0000000000000000101010303030707070F86
:104B0000070F1F9FDF0F87270F00C30281010000DF
:104B10000000000000000000000000000000000095
:104B2000000000000000000000600004040000001D
:104B30008000800000000000000000000000000075
:104B40000000000000000000000000000000003C29
:104B500005202109A02408000D0000C50000000068
:104B60000000000000000000000000000000000045
:104B70000000000000000000000000000000000035
:104B800000000003070706060603010000000000FE
:104B90000000000000000000000000000000000015
:104BA00000000000000000000010000010801080D5
:104BB00010F200C09E6EC050E0A060000000000037
:104BC00000000000000000000000000000000038AD
:104BD000AC004085D0910382808080EB0000000013
:104BE00000000000000000000000000000000000C5
:104BF00000000000000000000000000000000000B5
:104C000000000000000000000000000000000000A4
:104C10000000000000000000000000000000000094
:104C20000000000000000000000000000000000183
:104C300001070E0C393E7DF9BB7F7C0000000000AF
:104C40000000000000000000000000000000000064
:104C50000000000000000000000000000000000054
:104C60000000000000000000000000000000000044
:104C700000000000000000000BFFFFC78000187854
:104C8000E8F8FCFC9C8C0C0C040000000000000008
:104C90000000000000000000000000000000000014
:104CA0000000000000000000000000000000000004
:104CB00000000000000000000000000000000000F4
:104CC00000000000000000000000000000000000E4
:104CD00000000000000000000000000000000000D4
:104CE00000000000000000000000000000000000C4
:104CF0000000000000000000F4FFFFFFF3000000D0
:104D0000410003071F3F7FFCF8F0E0C000000000F7
:104D10000000000000000000000000000000000093
:104D20000000000000000000000000000000000083
:104D30000000000000000000000000000000000073
:104D40000000000000000000000000000000000063
:104D50000000000000000000000000000000000053
:104D60000000000000000000000000000000000043
:104D7000000000800000000000FBFF1323BFC08084
:104D800080C0E0F0F8FCFFFFFF3F0F03000000C011
:104D9000E0F0F0F070E0C000000000000000000053
:104DA0000000000000000000000000000000000003
:104DB00000000000000000000000000000000000F3
:104DC00000000000000000000000000000000000E3
:104DD00000000000000000000000000000000000D3
:104DE00000000000000000000000000000000000C3
:104DF0000000030F7CF8F0E0C0BFFFFFFFFFFFFFE4
:104E0000FFFFFFFF9F1F03010080080082C0C1C297
:104E1000E3E07070381000000000000000000000A7
:104E20000000000000000000000000000000000082
:104E30000000000000000000000000000000000072
:104E40000000000000000000000000000000000062
:104E50000000000000000000000000000000000052
:104E60000000000000000000000000000000000042
:104E7000000000000001030F7FFFFFFFFF41FFFF65
:104E8000FFFFFFFFFFFFFD0FFEFCFE7F3F0F030153
:104E90004100004000000080000000000000000011
:104EA0000000000000000000000000000000000002
:104EB00000000000000000000000000000000000F2
:104EC000000000000000000000000000000000C022
:104ED000C00040000000400000C080000000000052
:104EE00000000000000000000000000000000000C2
:104EF00000000000000001000000000103000307A3
:104F0000C7EFC7C30B8BC7E3C08100008000000060
:104F10000000000000000000000000000000000091
:104F200000000000000000000004002404800000D5
:104F3000A000800000000000000000000000000051
:104F40000000000000000000000000000000001051
:104F500061202409A12528200D0000040000000084
:104F60000000000000000000000000000000000041
:104F70000000000000000000000000000000000031
:104F80000003070703030303030100000000000000
:104F90000000000000000000000000000000000011
:104FA0000000000000000000000000000000508031
:104FB00000208281B6FA74D07020A00000000000AA
:104FC0000000000000000000000000000000002AB7
:104FD000EC004004D091428A808080F600000000FE
:104FE00000000000000000000000000000000000C1
:104FF00000000000000000000000000000000000B1
:1050000000000000000000000000000000000000A0
:105010000000000000000000000000000000000090
:10502000000000000000000000000000000000017F
:105030000205041A3C366DFAFF7F7D000000000077
:105040000000000000000000000000000000000060
:105050000000000000000000000000000000000050
:105060000000000000000000000000000000000040
:1050700000000000000000000001005FFFFFFFF7DC
:105080002E6FF9F8FEFFECE6E4C0C000000000005F
:105090000000000000000000000000000000000010
:1050A0000000000000000000000000000000000000
:1050B00000000000000000000000000000000000F0
:1050C00000000000000000000000000000000000E0
:1050D00000000000000000000000000000000000D0
:1050E00000000000000000000000000000000000C0
:1050F0000000000000000000B0F3F0E63F2FFFFFCB
:10510000F04294FCE4FF7FFFFFFB0400000000007E
:10511000000000000000000000000000000000008F
:10512000000000000000000000000000000000007F
:10513000000000000000000000000000000000006F
:10514000000000000000000000000000000000005F
:10515000000000000000000000000000000000004F
:10516000000000000000000000000000000000003F
:1051700000000000000000A0FEFFFFF87EFFF0F33B
:10518000F8FEFFFFFFFFFFBF53110000000000000B
:105190002070C020306040000000000000000000CF
:1051A00000000000000000000000000000000000FF
:1051B00000000000000000000000000000000000EF
:1051C00000000000000000000000000000000000DF
:1051D00000000000000000000000000000000000CF
:1051E00000000000000000000000000000000000BF
:1051F000000002050818507FDF1FE3FCFFFFFFFFE0
:10520000FFFFFF7FBFFF7F030000000000000000E2
:10521000C10020300010000000000000000000006D
:10522000000000000000000000000000000000007E
:10523000000000000000000000000000000000006E
:10524000000000000000000000000000000000005E
:10525000000000000000000000000000000000004E
:10526000000000000000000000000000000000003E
:1052700000000000000000082100C7CF8F8717172B
:105280008F9F8F0803034100400000291002000097
:10529000000000400000008000000000000000004E
:1052A00000000000000000000000000000000000FE
:1052B00000000000000000000000000000000000EE
:1052C000000000000000000000000000000000805E
:1052D000C00040000000400000808000000000008E
:1052E00000000000000000000000000000000000BE
:1052F0000000000000000000000001030307060793
:10530000070301000003000000000000000000008F
:10531000000000000000000000000000000000008D
:105320000000000000000000000C8022004000008F
:10533000A04080000000000000000000000000000D
:10534000000000000000000000000000000000B0AD
:1053500072202409A10128000B0000E800000000D1
:10536000000000000000000000000000000000003D
:10537000000000000000000000000000000000002D
:105380000000040501010100000000000000000011
:10539000000000000000000000000000000000000D
:1053A00000000000000000000000103000014080FC
:1053B0001024651A16F2F05870E06000000000003A
:1053C00000000000000000000000000000000026B7
:1053D000EC00000690D1939E808080FE00000000CB
:1053E00000000000000000000000000000000000BD
:1053F00000000000000000000000000000000000AD
:10540000000000000000000000000000000000009C
:10541000000000000000000000000000000000008C
:10542000000000000000000000000000000000017B
:105430000002061A327C2DF6DD7F7F00000000009E
:10544000000000000000000000000000000000005C
:10545000000000000000000000000000000000004C
:10546000000000000000000000000000000000003C
:10547000000000000080808080010003FFFFFDE04D
:105480002070F0F8FCFEFEEEE4E0400000000000BA
:10549000000000000000000000000000000000000C
:1054A00000000000000000000000000000000000FC
:1054B00000000000000000000000000000000000EC
:1054C00000000000000000000000000000000000DC
:1054D00000000000000000000000000000000000CC
:1054E00000000000000000000000000000000000BC
:1054F00000000006CFCFCF07273F1F08071FFFFF81
:105500007F7CE5E8FEFF7FFFFFFF0000000000005A
:10551000000000000000000000000000000000008B
:10552000000000000000000000000000000000007B
:10553000000000000000000000000000000000006B
:10554000000000000000000000000000000000005B
:10555000000000000000000000000000000000004B
:10556000000000000000000000000000000000003B
:105570000000000000073FFEFCF000807CFFF9F90E
:10558000F8F8FEFFFFFFFF3F1F11000000000000C2
:1055900000008020304000000000000000000000FB
:1055A00000000000000000000000000000000000FB
:1055B00000000000000000000000000000000000EB
:1055C00000000000000000000000000000000000DB
:1055D00000000000000000000000000000000000CB
:1055E00000000000000000000000000000000000BB
:1055F0000000020400007F7FCFF3F8FEFFFFFFFFF3
:10560000FFFFFFFFFFFE030100000000000000009D
:10561000000000300000000000000000000000005A
:10562000000000000000000000000000000000007A
:10563000000000000000000000000000000000006A
:10564000000000000000000000000000000000005A
:10565000000000000000000000000000000000004A
:10566000000000000000000000000000000000003A
:10567000000000000000000083E78F8737878F9FBE
:105680009F0C030703010000000000000000000061
:1056900000000040000000000000000000000000CA
:1056A00000000000000000000000000000000000FA
:1056B00000000000000000000000000000000000EA
:1056C000000000000000000000000000000000805A
:1056D000C00040000000400000808000000000008A
:1056E00000000000000000000000000000000000BA
:1056F0000000000000000000010303070607070385
:105700000100000000020000000000000000000096
:105710000000000000000000000000000000000089
:10572000000000000000000000040004200880A029
:10573000E000800000000000000000000000000009
:10574000000000000000000000000000000000F465
:105750005E200429810B28000B0020F900000000C6
:105760000000000000000000000000000000000039
:105770000000000000000000000000000000000029
:105780000000000001000000000000000000000018
:105790000000000000000000000000000000000009
:1057A000000000000000000000040010008040180D
:1057B000182171EA0642606890E040000000000095
:1057C0000000000000000000000000000000006772
:1057D000EC00005690D1829E8080C0FF0000000047
:1057E00000000000000000000000000000000000B9
:1057F00000000000000000000000000000000000A9
:105800000000000000000000000000000000000098
:105810000000000000000000000000000000000088
:105820000000000000000000000000000000000177
:105830000102061A0C7875FEEF7B7D000000000067
:105840000000000000000000000000000000000058
:105850000000000000000000000000000000000048
:105860000000000000000000000000000000000038
:105870000000000000808000000103FFEFCFC000A7
:105880000000001878FEFFDF0703000000000000A2
:105890000000000000000000000000000000000008
:1058A00000000000000000000000000000000000F8
:1058B00000000000000000000000000000000002E6
:1058C00000000000000000000000000000000000D8
:1058D00000000000000000000000000000000000C8
:1058E00000000000000000000000000000000000B8
:1058F0000000000001C04103031204FFFFFFFF800E
:1059000001004100C2FFFFFFFEE0000000000000B8
:105910000000000000000000000000000000000087
:105920000000000000000000000000000000000077
:105930000000000000000000000000000000000067
:105940000000000000000000000000000000000057
:105950000000000000000000000000000000000047
:10596000000000000000000000004060787818F897
:10597000781070000001086020200000FFDFFDFFAC
:10598000F8E000E0FFFFF9F7F1F030000000000060
:105990000000000000000000000000000000000007
:1059A00000000000000000000000000000000000F7
:1059B00000000000000000000000000000000000E7
:1059C00000000000000000000000000000000000D7
:1059D00000000000000000000000000000000000C7
:1059E00000000000000000000000000208091C3C4C
:1059F0003C3A79F8F0D0E0C004102082FFFFFFFFAE
:105A0000FFFFFFFFFFFFFFFFFF0F00000000000090
:105A10000000000000000000000000000000000086
:105A20000000000000000000000000000000000076
:105A30000000000000000000000000000000000066
:105A40000000000000000000000000000000000056
:105A50000000000000000000000000000000000046
:105A60000000000000000000000000000000000036
:105A7000000000031F3D7FEFF7F6FF67FFFFDFFF2A
:105A8000F7DFEFFFFB3F0F01010100000000000006
:105A900000000040000000000000000000000000C6
:105AA00000000000000000000000000000000000F6
:105AB00000000000000000000000000000000000E6
:105AC00000000000000000000000000000000000D6
:105AD000C00040000000400000C0000000000000C6
